:020000041000EA
:1000000000B5324B212058609868022188439860DF
:10001000D860186158612E4B002199600221596106
:100020000121F02299502B49196001219960352056
:1000300000F044F80222904214D00621196600F024
:1000400034F8196E01211966002018661A6600F04E
:100050002CF8196E196E196E052000F02FF8012189
:100060000842F9D1002199601B49196000215960AB
:100070001A491B48016001219960EB211966A021F2
:10008000196600F012F800219960164914480160C1
:100090000121996001BC002800D000471248134993
:1000A000086003C880F30888084703B5996A0420EC
:1000B0000142FBD001200142F8D103BD02B5186610
:1000C0001866FFF7F2FF186E186E02BD00000240BE
:1000D000000000180000070000035F00212200005C
:1000E000F4000018222000A00001001008ED00E03C
:1000F00000000000000000000000000074B24E7A12
:1001000000200420F7010010C3010010C5010010F9
:10011000C1010010C1010010C1010010C101001097
:10012000C1010010C1010010C1010010C701001081
:10013000C1010010C1010010C9010010CB01001065
:10014000CD010010CD010010CD010010CD01001037
:10015000CD010010CD010010CD010010CD01001027
:10016000CD010010CD010010CD010010CD01001017
:10017000CD010010CD010010CD010010CD01001007
:10018000CD010010CD010010CD010010CD010010F7
:10019000CD010010CD010010CD010010CD010010E7
:1001A000CD010010CD010010CD010010CD010010D7
:1001B000CD010010CD010010CD010010CD010010C7
:1001C00000BE00BE00BE00BE00BE00BEEFF3058054
:1001D000103800BEF2EB88718C2E0010AC2E00108F
:1001E0003802001090A31AE71E481F49086006C88D
:1001F00081F3088810471D480068002801D019487D
:10020000F3E70DA40ECC002902D000F012F8F9E7B4
:100210001749184A002000E001C19142FCD116495B
:100220008847164988471649884700BEFDE701C937
:1002300001C29A42FBD37047AC2E0010C0000020D0
:10024000800800206C36001000000420000004200C
:100250006C36001000100420001004200000000084
:10026000704700000000000008ED00E0000000D032
:1002700080080020EC0E0020F51C0010D5020010B4
:10028000ED1C0010F8B5C04606480749091A8B1046
:10029000C90FC91810B5491003D0044B002B00D06A
:1002A000984710BD80080020800800200000000052
:1002B000054B10B5002B03D00449054800E000BFF2
:1002C000FFF7E2FF10BDC04600000000B00E0020A6
:1002D0003C2C0010F0B5D6464F464646C0B5314CD2
:1002E0008AB03149200001F045FF03210E2000F0C3
:1002F0007BFC03210F2000F077FC002201210E205F
:1003000000F08CFC002201210F2000F087FC3C2330
:1003100040228021009304A80023019400F04CF8AF
:1003200004A800F063F804A800F048F9002104A82C
:1003300000F08AF904A800F041F91C4B01259A4607
:100340001B4B012799461B4B3A2698462C007C40B4
:100350002900E4B204A800F077F97A2303220321EC
:10036000029504A80194009600F0AEF90A23082231
:10037000514604A800F018FC1E231422494604A884
:1003800000F012FC30230F22414604A800F00CFCC0
:1003900004A800F013F9FA20800001F027F82500E6
:1003A000D4E7C04610030020801A06003C2C001041
:1003B000502C00105C2C001070B50400D00804AB69
:1003C00005041B78484312020A432A431B061A43BA
:1003D000059B0130636001212260206101F022FC55
:1003E000402303704033E060237570BD70B5060094
:1003F0000025AE2382B014360400C1784375320064
:100400004068AC3B009501F0DDFE2023E178637588
:10041000320060681E3B009501F0D4FE0123E178B4
:100420006375320060680133009501F0CBFE402314
:10043000E1786375320060683E3B009501F0C2FED2
:10044000A123E1786375320060689F3B009501F05D
:10045000B9FEA823E178637532006068A63B009579
:1004600001F0B0FE3F23E1786375320060683D3BE8
:10047000009501F0A7FEC823E1786375320060683B
:10048000C63B009501F09EFED323E17863753200F0
:100490006068D13B009501F095FEE178320060681C
:1004A00065750223009501F08DFEDA23E17863750E
:1004B00032006068D83B009501F084FE1223E17899
:1004C000637532006068103B009501F07BFED52318
:1004D000E178637532006068D33B009501F072FEED
:1004E0008023E1786375320060687E3B009501F0FF
:1004F00069FED923E178637532006068D73B0095C7
:1005000001F060FEF123E178637532006068EF3B33
:10051000009501F057FEDB23E178637532006068D7
:10052000D93B009501F04EFE3023E178637532002F
:1005300060682E3B009501F045FE8123E1786375EC
:10054000320060687F3B009501F03CFEFF23E178BC
:10055000637532006068FD3B009501F033FEA42313
:10056000E178637532006068A23B009501F02AFED5
:10057000A623E178637532006068A43B009501F022
:1005800021FE8D23E1786375320060688B3B009516
:1005900001F018FE1423E178637532006068123BA5
:1005A000009501F00FFEAF23E178637560683200BB
:1005B0000095AD3B01F006FE02B070BD70B50600BF
:1005C00000252123040082B01436C178437532001F
:1005D00040681F3B009501F0F5FDE178320060684E
:1005E00065750223009501F0EDFD2378E178013B6C
:1005F0006375320060680223009501F0E3FD222359
:10060000E178637532006068203B009501F0DAFD07
:10061000E1783200606865750223009501F0D2FD33
:10062000A378E178013B637532006068022300958E
:1006300001F0C8FD2369E268E1786068009501F087
:10064000C1FD02B070BDC0464378F0B5002B20D08C
:10065000072300269C460127047800291FD1002C7F
:1006600017D063463D0033409D40ED430023F20820
:10067000EDB20132C4680133A15CDBB22940A15460
:10068000047808329C42F5D801364378F6B2B3427A
:10069000E5D8F0BD01364378F6B2B342F9D9002C63
:1006A000F7D063463D0033409D400023F208EDB291
:1006B0000132C4680133A15CDBB22943A154047840
:1006C00008329C42F5D8E5E7F0B5DE465746454688
:1006D0004E469B46E0B585B00EAB15001A780FABC1
:1006E0001B780C00009310AB1B7801935B465F19DD
:1006F000BD4200DB1CE1CB08013301269C460723E9
:1007000099460B4031009940531EE318DBB2029129
:10071000D908884601218A4649460B409E40009BE5
:10072000D044002B00D08CE0029BF643D943CBB2DF
:100730009A46F3B2994611002B004A46B9465746ED
:100740008A46029403956446C668D9006518745DAC
:1007500041443C407455C56801336C5CDBB21440C5
:100760006C549945EFDC5246029C4F461319039D89
:100770009C422ADA5E46EA0001329046013EAE19FA
:10078000F6B2F600013607218A460639AB4622004A
:10079000454689469C46B0460297039454464F46C8
:1007A0001440A740C368D1086E189C5D4144BC4307
:1007B0009C55C4680132635CD2B2BB436354944518
:1007C000ECDC63465D46029F039C019A002A00D13F
:1007D00083E06A1C791ED2B28A4691427DDD611C9B
:1007E000013BC9B28B4278DD00990235002900D067
:1007F0007AE0D20001329446A21C90460200E9B28F
:10080000180089466346012694464246D4B207271B
:10081000611EC9B2CA083940370065468F40ED688D
:100820009A1892B2A95CB943A954220001349042AB
:10083000EDDC4A46083301329BB2CA454DDD914694
:10084000E3E76B461B7A39009946F6B24F4692466B
:100850002B0032008946029403956446C668D9008D
:100860000D19745D41443C437455C56801336C5C9B
:10087000DBB214436C544B45EFDB5246029C4F46AF
:100880001319039D9C42A0DA5E46EA0001329046AD
:10089000013EAE19F6B2F600013607218A46063946
:1008A000AB462200454689469C46B04602970394D3
:1008B00051464F4611408F40C368D4082E19F9B2F3
:1008C0009F5D44440F439F55C36801321E5DD2B201
:1008D000314319556245EBDB73E705B0F0BCBB460D
:1008E000B246A946A046F0BDE9B2D500A21C90468A
:1008F00001228946944601354246D4B20727611E3B
:10090000C9B2CA08394067468F403900C668AA187C
:1009100092B2B75C3943B154220001349342EDDC0A
:100920004A4608350132ADB2D145D6DA9146E3E701
:1009300053188B4200DC48E75E46EA00013E013274
:10094000AE199046F6B2009AF6000136002A00D1A0
:1009500019E7A2E7F0B5DE4657464E4645460C007D
:10096000E0B5413C99B0192C00D90EE13639C900E7
:1009700089B28846D9080724013106910121250052
:100980000E001D40AE403500F643EDB208955D1CEB
:10099000F6B2EDB20796EE08013617960E00254026
:1009A000AE403500F643EDB20A959D1CEDB2F7B2AC
:1009B000EE080997771C0E002540AE403500F6433F
:1009C000EDB20C95DD1CEDB20497F7B2EE080B9773
:1009D000771C0E002540AE403500F643EDB20E9573
:1009E0001D1DEDB20197F7B2EE080D97771C0E00B2
:1009F0002540AE403500F643EDB210955D1DEDB2D9
:100A00000397F7B2EE080F97771C0E002540AE4013
:100A10003500F643EDB212959D1DEDB20097F7B289
:100A2000EE081197771C0E0007332540DBB2AE406D
:100A30001C40A140F5B21495DD08CB43DBB2159301
:100A4000CBB2169313000135AC460833554DDBB2DB
:100A5000454498460123994663460297F743059318
:100A600043460699179EFFB28C46B04613970693ED
:100A70005BE0079F3C4034704446C768E4183E1969
:100A80003C5D02270F4200D07CE0099F3C4034705F
:100A9000049CC768E4183E193C5D04270F426ED1E0
:100AA0000B9F3C403470019CC768E4183E193C5DC4
:100AB00008270F4260D10D9F3C403470039CC768EB
:100AC000E4183E193C5D10270F4252D10F9F3C4065
:100AD0003470009CC768E4183E193C5D20270F4223
:100AE00044D1119F3C403470029CC668E418371909
:100AF000345D4026BB460E4235D1139E34405E46DF
:100B00003470059C49B2A246C4685344E618B24604
:100B1000E35C002916DB159901320B4051460B703E
:100B2000069BD2B201359A4216D06446C768D300FC
:100B3000E4183E193C5D4F4629780F4299D0089F32
:100B40003C4398E7169901320B4351460B70069BC4
:100B5000D2B201359A42E8D119B0F0BCBB46B246D8
:100B6000A946A046F0BD149E3443C8E7129F3C43FB
:100B7000B9E7109F3C43ABE70E9F3C439DE70C9FBA
:100B80003C438FE70A9F3C4381E70024A0460C00CA
:100B9000303C092C00D9EDE62F39C90089B28846CE
:100BA000E8E6C046002D0010F8B507000E0014005E
:100BB0001D0014E0220008342B003800E4B2FFF7D7
:100BC000C9FE22003B78083201369A4202DB00243B
:100BD0000835EDB22B007A780833934202DA317887
:100BE0000029E7D1F8BDC046094A83009A1810B51C
:100BF00014684022544080322240064CC000A44673
:100C000063441A60044B9C466044416010BDC0467A
:100C100004C0014004D0014000400140074B800067
:100C2000C3181B68C90092000A435A400C231340A2
:100C3000034A9446604403607047C04604C00140C4
:100C400004D001400FB400B5084883B001F086F924
:100C5000049B002B07D005A91800019101F012F8A0
:100C6000034801F07BF9012001F024F8682C001002
:100C7000782C001070B5EFF3108C72B60D4D2B6808
:100C8000002BFCD0BFF35F8F0724CB08C618C05CD5
:100C900001230C40A3401C000440034207D1184329
:100CA0003070BFF35F8F2C608CF3108870BD100024
:100CB000FFF7C8FF2C0100D0044A1078431CDBB2B8
:100CC000172B00D9102313707047C046D0020020A4
:100CD0000021044B044ABFF35F8F02C39342FAD151
:100CE0007047C046000100D0800100D0054B064A85
:100CF0001360064A136053609360D36013615361BD
:100D0000936170478080808000E400E004E400E0AC
:100D10001F2318401E3B8340002905D0C021044AF0
:100D20004900535013607047802201498B50FAE705
:100D300000E100E070B50D00EFF3108672B60F4AC7
:100D40001368002BFCD0BFF35F8F0D4B10309B68F6
:100D500084001B590B4A934203D09D4201D000F0FE
:100D600093FD074B9B681D51BFF35F8FBFF35F8FF0
:100D70000022024B1A6086F3108870BD240100D057
:100D800000ED00E0CD010010024B9C46614489005B
:100D9000016070474000003470B5114C114DAC42F9
:100DA0000FD2FF262368002B0CD0FFF785FF010030
:100DB0002000FFF7E9FFA680BFF35F8F0834AC4245
:100DC000F0D370BDFFF778FF01002000FFF7DCFFD4
:100DD0002671BFF35F8F0834AC42E3D3F1E7C0461E
:100DE00078080020800800200A4B1968EFF3108073
:100DF00072B60A68002AFCD0BFF35F8F1B68BFF38E
:100E00005F8F00221A6080F3108840BF002000210D
:100E10007047C046E40E0020F0B5DE4657464E4609
:100E20004546E0B583B0EFF3058203231340B54A8E
:100E3000990052580091904601229A40B24B934635
:100E40001A60B24B01932EE043469B881BB2002BE5
:100E500000DB99E043469B79002B00D0DDE0434660
:100E600008241C5F002C00DA06E143465A6963003F
:100E70001B19DB00D3189D68DC686B1C00D107E1EF
:100E8000A34B00999C4661449A6A0B69A81A9B1A65
:100E9000984200D20D619E4800F03EFB8C4200DD7E
:100EA000EAE000D126E15B469948436343460822C5
:100EB0009B5E9946002BC7DB424652695B00924617
:100EC0004B44DB009A4453469E68DF6800F024FBE5
:100ED0008F42B9DC00D100E1002F00DAE1E0524698
:100EE000534654691B69019A934200D1D4E04146AC
:100EF00052460820085E528800042100104398479B
:100F000004000D0023002B4300D1CAE0002D00DBBC
:100F1000E7E030003900001BA94153469860D960D2
:100F200000229A5E002A8FDB43465D6953009C18BD
:100F3000E4002C19A768E4688C4200DD84E702D144
:100F4000874200D980E74646328108360DE08C4260
:100F500000D1D3E01E000023F25E002A0ADB53001A
:100F60009C18E4002C19A768E4689B18DB00EB18B8
:100F70008C42ECDD53461A804B46338043469B88B7
:100F80001BB2002B00DA65E743461A69EFF31081C4
:100F900072B61368002BFCD0BFF35F8F43469E8868
:100FA000012342465B42938036B21369BFF35F8FE1
:100FB00000221A6081F31088002E00DA4AE74346C7
:100FC0005D69083342469C467700BF19FF00EF1960
:100FD000BB68604698460823D15E9246FC680029AB
:100FE00007DA0EE0A2424FD018000023C15E0029AC
:100FF00006DB4B005B18DB00EB18DA68A242F1DD80
:10100000524606800023FE5E3980002EDCDA9046D0
:1010100043469B79002B00D121E700234246937180
:10102000434646460821595E08364B1C24D04746A5
:101030008946556902E006004B1C18D04B005B182E
:10104000DB00E8180A008C46E95E43881BB2002BDF
:10105000F1DA01235B42DC178360C4604A4503D0A8
:1010600031803B8903803A81E1464B1CE6D14C46F6
:10107000B846002C00DBF8E640BF03B0F0BCBB462E
:10108000B246A946A046F0BD9A684245ACD9B7E73A
:10109000631C00D0F4E6FEE6200023699847002890
:1010A00025D1534642461B8813811269EFF3108302
:1010B00072B611680029FCD0BFF35F8F42465146DB
:1010C00052880A804246494651801269BFF35F8FB9
:1010D0000021116083F31088B6E6864200D8FBE653
:1010E000B2E60B4800F018FA0019694115E7656887
:1010F000246807E7854200D8D5E6BDE7874200D8D7
:1011000028E737E7C80E00203C700540190E001094
:101110000040054070B52E4C2569002D04D00A21F1
:101120002C48FFF731FE70BD2B4E0321300000F03C
:10113000E9F9E660FFF7C0FD284B03229C46D02367
:1011400022701B061B6801216370254B6044A3605D
:101150000F23800020610220638063694942A180DF
:1011600019800231198647311D83585218315A525D
:1011700075325C3999521832013199521832013165
:101180009952183201319952083518329D52023164
:10119000183299521832013199521832013199524C
:1011A00018320131995218320131995218320131F5
:1011B00099520C4B0C49DC6001303562FFF7BAFDE7
:1011C00001210320FFF7A4FD084B1D60A7E7C046DF
:1011D000D4020020E40E002000400540400000340E
:1011E000FFFF1000C80E0020190E001038600540E7
:1011F00070B501000469EFF3108C72B62068002806
:10120000FCD0BFF35F8F02200D5E4C69680040196F
:10121000C0002418002D37DB208848800869BFF300
:101220005F8F002606608CF31088E3606388049863
:10123000013320615B0405985B0CA26060611A1C9D
:10124000002B1FD093B22804628018430A69EFF381
:10125000108C72B61368002BFCD0BFF35F8F8B88A5
:1012600023808D800B69BFF35F8F00221A608CF39F
:1012700010880B7801329A40CB6808498C46634449
:101280001A6070BD0122DDE70B69BFF35F8F00229A
:101290001A608CF3108801204042F2E73C200000E5
:1012A00010B543890A1493421ADD53009B18426912
:1012B000DB00D3180469EFF3108C72B62268002AA1
:1012C000FCD0BFF35F8F5A88090494B2090C8A429C
:1012D00008D00369BFF35F8F00221A608CF3108877
:1012E000002010BD8022120214435C800123026999
:1012F0008371BFF35F8F002111608CF31088044964
:1013000002788C469340C268012062441360E8E78B
:101310003C200000F0B504000D0006267642F717C9
:10132000C64636196F4100B582B08F4214D811D02D
:1013300000F0FAF832003B00121A8B41002B17DC48
:10134000002B47D02000290000F0F8F802B080BC44
:10135000B846F0BD8642EBD90022002316001F00DC
:1013600000F0E2F832003B00121A8B41002BE7DD5F
:1013700000F0DAF832003B00121A8B41002B0ADB36
:1013800000230193154B3200009315483B00FFF7F3
:101390002FFF0028D6DB00239C46B046114A124E90
:1013A000736A9F4204D8B16A8845CBD99F42C9D19C
:1013B0001168EFF3108072B60B68002BFCD0BFF3FE
:1013C0005F8F1368BFF35F8F6146196080F31088E9
:1013D00020BFE5E7002AB5D0CAE7C046E90D0010F6
:1013E000D4020020E40E00200040054070B5060045
:1013F00000F09AF8FA2204000D00002330000021CA
:10140000920000F0ADFB8023001969411B06994250
:1014100002D3012002494042FFF77CFF70BDC04665
:10142000FFFFFF7FF0B5CE46474680B504000D00B4
:1014300083B0EFF305878846002F3ED12E4EA1469C
:101440003378F06804339B00816A1B58601A5B1A7A
:1014500098420ED320BF294900204B6AAB4203D3E8
:101460008A6A0130944231D803B0C0BCB946B04654
:10147000F0BD00F059F822002B00121A8B41002B0E
:101480002FDB1F4B2200009330002B000197FFF74A
:10149000AFFE011E25DD194B5A6AAA421BD220BF9E
:1014A0003000FFF7FDFE154A0020536A4345DBD3A9
:1014B000926A01309145D7D908E0104900204B6A63
:1014C000AB42D1D38A6A0130A242CDD25B1B5A1EF5
:1014D0009341D8B2C8E79B6A9C42E1D9AA42DFD1C6
:1014E000DDE7064A0020536A4345BDD3926A0120D6
:1014F0009145B9D9EAE7C046D40200200040054032
:10150000E90D001010B5024A0248FFF7B3FB10BD09
:101510007C2C0010700E00200300416A0A00986ABB
:10152000596A8A42FAD17047034B596A0A00986A8D
:10153000596A9142FAD1704700400540064A536A01
:101540009942FCD807D1044B02E05A6A914202D179
:101550009A6A8242F9D3704700400540F8B5DE46EA
:101560004E4657464546E0B58B4605000A99180099
:10157000160000F067FA0A9B6C001F02324B6419D8
:101580009C46A4006444636881469F4200D967601A
:101590002B1FDBB29846012B30D9C02380229B0140
:1015A000E31812011A60294BAD0059599A460029D7
:1015B0001BD17301E026226853401E40802342461F
:1015C0005B01E3181E60012A30D9802380229B0131
:1015D000E31812011A6053464A4667605A51F0BC3C
:1015E000BB46B246A946A046F8BD586900F02AFAA3
:1015F000013043001B18033BFDD2DAE75B46012BA9
:10160000CBD1C02303229B01E3181A60023AA368DE
:101610001A42FCD07301E0262268AD0053401E4000
:1016200080230A4A5B019246E3181E605A462168ED
:10163000514003220A401A6001225B469A40A36887
:101640001A42FCD0C1E7C04600800040740E002062
:10165000F0B546464F46D646C0B51F00344B440051
:101660009C462418A4006444636888461600FF2B37
:1016700002D880235B006360031FDBB29A46012B14
:1016800030D9C02380229B01E31812011A60294B34
:1016900085005959994600291BD17301E02622681B
:1016A00053401E40802352465B01E3181E60012A0E
:1016B00030D9802380229B01E31812011A60802315
:1016C0005B0063604B465F51E0BCBA46B146A8463A
:1016D000F0BD586900F0B6F9013043001B18033B18
:1016E000FDD2DAE74346012BCBD1C02303229B0175
:1016F000E3181A60023AA3681A42FCD07301E0268C
:101700002268850053401E4080230A4A5B019146AF
:10171000E3181E6042462168514003220A401A60C5
:10172000012342469340A2681342FCD0C1E7C04661
:1017300000800040740E0020014B8000C0587047AC
:10174000740E0020F8B5040021481E0017000D009B
:1017500000F078F90100380000F074F9069B3604B7
:101760001B031E432368002B20DB1A4B1A49E31886
:101770005A1E93418022920194465B421B0B174AEA
:101780001B0363441360164A13601F000A689743E3
:10179000FBD1144B2560E2182123A060136023685D
:1017A000002BFCDA0823E6601360F8BD3F232268B3
:1017B0001340AB42D9D1A3681B051B0D8342D4D182
:1017C000EE22E368D2021340B342CED1EDE7C04629
:1017D000001BB7000040FDBF08C0004000E0004013
:1017E00000F00040043000008023024A9B000B43BD
:1017F000D362704700800540142310B5010018889B
:1018000004331B88984710BD162310B501001888B3
:1018100002331B88984710BDF8B54746CE4680B5C1
:101820000F1E19D014239946043304000025012605
:1018300098464B461888434621681B88984701C440
:10184000431E9841013540420640AF42F1D130007D
:10185000C0BCB946B046F8BD0126F8E7AA23064A3F
:101860001B0113602F230549D360054B1960536892
:10187000002BFCDA7047C0460040024000B0FA007E
:10188000006002407047C04610B50148FFF7DAF922
:10189000A02C001070B5074D074EB54209D20024A8
:1018A000013E761BB60808CD984723000134B342A9
:1018B000F9D170BDF82B0010342C0010054B064AEE
:1018C00006491A60064A074B1A6010000B689843D5
:1018D000FBD1704700E00040BFCDFBFE08C00040D8
:1018E000FE7F3C0000F00040044BDB6C002B03D17A
:1018F0008022034BD2021A607047C046000011508C
:101900004C201150044A054B1A60054A1368DB014C
:101910008033FBD17047C046FFFFFF0100F000405D
:1019200008C000404022034B9A675A671A67DA667C
:101930007047C04600F0014010B5FFF7C9F910BD6F
:1019400070B5044D044CA968C022200000F08CF949
:10195000AC6070BD00ED00E000000020002310B579
:10196000294C82B0A367FFF779FF0122274B1A6049
:10197000636C012BFCD10322254B1A60224A936B26
:10198000012BFCD1013300930121224A2248043368
:10199000FFF7D8FE052301210093204A2048FFF7D6
:1019A000D1FE0022022104201E4BFFF751FE00222F
:1019B000012105201C4BFFF74BFE002200210720D0
:1019C0001A4BFFF745FE002200210820174BFFF7B6
:1019D0003FFE8023DB000093002200210920134BEF
:1019E000FFF7BCFD0022104B00210620FFF730FE60
:1019F0000420FFF7A1FE0E4900F024F801000020AA
:101A0000FFF7F2FE02B010BD008000403CB0004085
:101A100030B00040002F685900800240008C86479B
:101A200000C00240001BB70040597307006CDC0285
:101A300040420F0001480421014B1847F0020020EA
:101A400019180010114A936F9B0813D21066516643
:101A5000002905D0FFE7FFE7FFE7516F106F7047E0
:101A600004B5002801D00020C04301F0B5F80021E2
:101A700004BDC046F0B5146E556E576F166FFFF774
:101A8000E5FF1466556657671667F0BD000000D085
:101A9000132370B51D78012D19D014DD1F48FFF7F1
:101AA000B3FE06001E48FFF7AFFE1E4C8022310039
:101AB000200000F0D9F8022D2DD01B48FFF79CFE26
:101AC0001A4B186070BD1A4B164CA364F5E7184BFF
:101AD000144C23606360A360E36023616361A361CE
:101AE000E36123626362A362E36223636363A363CC
:101AF000E36323646364A364E36423656365A365AC
:101B0000E36523666366A366E36623676367A3678B
:101B1000E367A364D1E7064BA364CEE75344000018
:101B200053460000000A00204C330000E00E002065
:101B3000351B001007B5604601880A0A0230DF2A0B
:101B4000FAD1C9B2820804D3028840880004104345
:101B500000E00068014A5050039007BD000A0020D1
:101B600051434343C9188C46110C83B24B4310B404
:101B7000040C614392B280B2504362431C041B0CBC
:101B8000001910BC59411304120CC0185141614492
:101B900070470000132310B512481C78FFF734FE7D
:101BA0000100012C0AD003DD80220F4800F05CF810
:101BB0000E48FFF721FE0E4B186010BD0A4C542250
:101BC000200000F051F80B4B6365A365E3652366C5
:101BD0006366A366E36623676367A367E3672362BD
:101BE000E361E5E753460000000B00204C330000A2
:101BF000E00E0020F91B001007B5604601880A0AB4
:101C00000230DF2AFAD1C9B2820804D302884088A0
:101C10000004104300E00068014A5050039007BDE3
:101C2000000B002070B505000C0000F0D5FA6C43E5
:101C3000002804D0034B04199C4200D870BD024810
:101C4000FFF700F800000420AC2C0010014804212C
:101C5000014B18470003002019180010014B1B68A6
:101C60001847000000030020014B5B681847000084
:101C70000003002010B5002800D110BD00F022F9AB
:101C8000FBE7C04610B5094A0300146884B0002C75
:101C900008D0012200910648524203A9A047012022
:101CA00004B010BD00F05AF90020F9E7AC0E002096
:101CB000751C001000BEFDE7094A030010680028EB
:101CC00005D00849C3188B4207D8136070470648EF
:101CD0000449C31810608B42F7D901204042F5E750
:101CE000A80E002000000420EC0E002010B5FFF725
:101CF000E1FFC04670B5FFF7CDFD074D074EB54279
:101D000009D20024013E761BB60808CD984723006F
:101D10000134B342F9D170BD342C00103C2C0010BA
:101D2000030010B5080011001B68984710BDC0469D
:101D3000F0B5C64600B5437D07000D001600002B28
:101D400038D0002A2EDD00216A1E90466A5C037D91
:101D50004C1C00200A2A0CD0A64216D043461B5D1C
:101D600021000D3B5A4253416A5CDBB24C1C0A2AEB
:101D7000F2D1002BF0D1884217DB022110483B68DA
:101D80009847A64207D02000E8E7864203DD311AD3
:101D90003B6828189847AD19013D2B780D3B5A42F6
:101DA00053413B7580BCB846F0BD091A3B68281802
:101DB0009847E2E70368110028009847F2E7C04619
:101DC000882E0010F0B5DE4657464E464546E0B533
:101DD00085B017001C0006000D00FFF7A5FB0023CF
:101DE000314A12184B41802109068B4202D301224D
:101DF0002E4B52422E4908008A4600F0F5FE019013
:101E00006B1C03D1300000F063FD0500002C26D0D0
:101E1000284B9846284B1C68002C15D0002F21D148
:101E2000264F02E02469002C0ED02368002BF9D045
:101E30003B68002B01D09C42F4D120002A003100E5
:101E4000C0472469002CF0D1019B002B28D1280029
:101E500005B0F0BCBB46B246A946A046F0BD184B43
:101E60009846D7E7154B994602ABDF1D0A239B46E0
:101E700002E02469002CE7D02368002BF9D04B4600
:101E80001B68002B01D0A342F3D12A0031002000AF
:101E9000C0475B460122390020003B70C047E8E79D
:101EA000504600F091FED2E740420F00FFFFFF7F57
:101EB00078080020311D00109C0E0020A40E002088
:101EC000211D0010F0B5CE46474680B583B06B4665
:101ED0000600DD1D2870FFF727FB00231A4A1218A1
:101EE0004B41802109068B4202D30122174B5242FB
:101EF00017490800884600F077FE164B81461C689B
:101F0000002C14D0144F02E02469002C0FD0236859
:101F1000002BF9D03B68002B01D09C42F4D120006B
:101F200001222900FFF704FF2469002CEFD14B4662
:101F3000002B05D1300003B0C0BCB946B046F0BD9F
:101F4000404600F041FEF5E740420F00FFFFFF7FF3
:101F5000780800209C0E0020A40E002070B504001C
:101F600000F0B6FC01230100050001222000FFF76C
:101F700029FF084B1C68002C06D06368002B05D095
:101F800098472469002CF8D1280070BD2469002CE2
:101F9000F3D1F9E79C0E002010B5024800F004F8D8
:101FA00010BDC046D80E002010B588B004000D2228
:101FB00000216846FFF752FE0D22002104A8FFF71A
:101FC0004DFE4B236A466846137004A90D2200F0AB
:101FD000F3FD1521082220006944FFF745FE08B0F3
:101FE00010BDC046F0B557464E46DE4645468446CF
:101FF000E0B583B01F000CAB187863469146002211
:102000001B680190DA6601325960DA66002F4FDDF5
:102010007A1E9046624612790126920280249346E7
:102020003A004640760280253700002046461021BF
:10203000A2469046AD00841B624254414A46644227
:102040003C4000945C46125C2243009C22431A618F
:102050005A6B1142FCD052469C58002C10D1B04211
:1020600021D00022013093468045E4D16346019A95
:102070001A7103B0F0BCBB46B246A946A046F0BDFB
:102080005A6D012293465A6B2A42FCD01A6E5A4668
:10209000002AE6D0002C03D0E30701D42407E5D4BE
:1020A00001204042E2E7019A002ADAD19346EAE7AA
:1020B0000020DBE7F8B5DE4657464E4645468346E8
:1020C000E0B505200C00FFF737FB06006008210093
:1020D0008019FFF7B7FC43009846804407000521AC
:1020E0004046FFF7AFFC3B1A9A461E4B81467000F4
:1020F00080199C4231D81C49FFF7A4FC451C5B4663
:102100001C680023E366226804335A4002331340FC
:1021100080225201A21813605346E3614B462362AA
:10212000434601204F2B03D950214046FFF78AFC3C
:10213000A023E050E36F39005D400C4B2D042D0CC3
:10214000E3181D6001233000E366FFF77BFCF0BC61
:10215000BB46B246A946A046F8BD0549FFF772FC4A
:10216000451CCCE73F420F00809698007C10000091
:1021700040787D010F4A70B5821A531E9A410E4B6A
:10218000D20008321A600D4B0D4C1A6015002368FE
:102190009D432B1EFAD166240268FF340571D56673
:1021A0001460633C8833FF3CD5639563D450FFF7DC
:1021B00081FF70BD1803002000E0004000F00040E7
:1021C00008C0004010B582B004AC24780094FFF73A
:1021D00009FF02B010BDC046030010B50A00034954
:1021E0000868190000F004F810BDC0463007002050
:1021F00070B50B0C0024150C002B28D1002D3CD100
:102200008BB291B2594300F047F8051E33D003005A
:10221000083B5A6803239A43043A242A12D803003D
:10222000132A0AD90460446008331B2A05D9846044
:10223000C460242A2AD00300103300221A605A6096
:102240009A6002E00021FFF709FD280070BD002D13
:1022500016D1151C89B292B24A43ADB29BB26B4300
:10226000110C5B18190C0BD1190492B2114300F038
:1022700013F8051ECBD10025E7E72B1C0D1CE9E761
:1022800000F00EFB0C2300250360DEE70300046171
:1022900018334461D1E7C046F0B54E464546DE46A8
:1022A0005746E0B50D000B35060085B0162D27D832
:1022B000102900D9DAE000F0D1FA10251823022104
:1022C000C74FFB181A005C68083A944200D146E1F7
:1022D00003226368A1689343E268CA6091600121A8
:1022E000E3185A6830000A435A6000F0BFFA200031
:1022F000083005B0F0BCBB46B246A946A046F0BDCA
:1023000007239D4300D5B1E0A94200D9AEE000F01B
:10231000A5FAFC235B009D4200D29AE1690A00D134
:10232000A8E0042900D94FE138239846A909884438
:102330003931CB00082252429446A94FFB189C44E5
:102340006346DC68A44514D0032399460B0061461C
:102350009C4607E0E068002A00DBFAE0814200D1F9
:10236000FBE004004A46636893435A1B0F2AF1DDE1
:1023700041463A003C690832944200D1D8E003203B
:1023800063688343581B0F2800DD66E13A617A6178
:102390000028A4DA7A68904680229200934200D303
:1023A000E3E0DA0858090123834040461843804699
:1023B000D300DB199A687860E360A2609C60D46007
:1023C00001208B10984040455CD8434603420AD117
:1023D00003239943434640000431034203D14000A4
:1023E00004310342FBD00323B3469C460E00B8469B
:1023F0000190F00040440100B246CB680BE0644617
:102400005A681F00A243DB68541B0F2C00DDF3E069
:10241000002C00DB0DE19942F1D101239946CA4419
:10242000534608319B07E8D1032205E003680838CA
:10243000013E834200D00AE23242F7D14346019A7C
:102440005B68934342465360019A520001929A425C
:1024500016D8002A06D113E004229146019ACA44F4
:10246000520001921342F7D05646C2E70C230020D7
:1024700033603EE780233F22402190469B0059E78E
:102480005E4647460322BC68636893439946AB4265
:1024900002D35B1B0F2B4EDC23004B440293514BAA
:1024A00008201B6810335B19019300F003FA4E49B2
:1024B00003900B688B46013306D08446019B424251
:1024C000013B6344134001933000019900F0D6F9B9
:1024D00003008046013300D1DDE0029B834200D936
:1024E000D7E0019A414B944619689A466144039A91
:1024F0001960029B0800013A434500D0EAE04346D8
:10250000134200D0E6E0BB68984663464B441A008D
:1025100001231A4343465A60354B1868884200D25B
:102520001960344B1868884200D219604446B4E000
:102530007B68984644E7012229001343114365193B
:1025400061603000BD606B6000F090F920000830E1
:10255000CFE6A268D0608260C1E6614609E7DC6828
:102560000231A34200D104E7B2E65A0A042A00D895
:1025700088E0142A00D90FE110005B3082465C32FB
:10258000D200082040428446BA18944462469268B9
:102590000B308146944500D1E5E00800A246614633
:1025A000844602E09268914204D04C465068A043B1
:1025B0009842F7D8D368614654469C466346A26069
:1025C000E3609C60D460FBE6142973D9542900D9D8
:1025D000EBE06E239846290B88446F31CB00A9E6C7
:1025E00028030020340C002020030020040C0020CD
:1025F0002C0C0020300C0020BA46012051468446A5
:102600004919054350464560856847466046EB607A
:102610005E469D60534639617961204308374860C2
:10262000CF6030008F609C5000F020F95046083099
:102630005FE6BA4601205E4652445168014351604C
:10264000BA683000D3609A6000F010F938000830A2
:102650004FE62B00E908083332E66119884601216C
:102660008C460D434146656039617961CA608A6074
:10267000624602434A60E050300000F0F7F8200064
:10268000083036E69A091000393238308246D200D6
:1026900077E7BC4214D0BC68626803239A43531B9B
:1026A000AA4202D30F2B00DD45E7300000F0DEF830
:1026B00000201EE65B23984688445C31CB0039E657
:1026C000644B9A461868019B9C46534660441860C8
:1026D000039B5A1E5B461B68013371D04346029927
:1026E0005B1A51461B180B600723414640461940B0
:1026F0000291184240D00398013384465B1A019935
:10270000984441440191634411405B1A1A401100FE
:102710003000934600F0B2F8431C78D04346C01A0C
:1027200003005B4401935346196801205944196022
:102730004346019ABB6002435A60BC4200D1EBE6BB
:102740004B460F2B40D907220C3B93436268024053
:1027500005201A436260E218506090600F2B4BD83E
:1027600043465A68D8E653469810012383404046B2
:1027700018438046786021E7019B03994344134046
:10278000CB1A1A4011003000934600F077F8431C32
:10279000C4D100239B46C6E7542A18D81A0B100050
:1027A0006F326E308246D200EBE6AA235B0099427C
:1027B00018D8DD3B9846E90B88447831CB00B9E561
:1027C0005B46414619608FE7434658606DE7AA2093
:1027D0004000824226D8DA0B1000783277308246E9
:1027E000D200CEE61C4B994226D87C239846A90CF1
:1027F00088447D31CB009DE521003000083100F098
:10280000EFF853461968BB6898465A6884E6019AFF
:10281000029B94464246083B63449B1A0193002363
:102820009B4680E70C4882420CD89A0C10007D32FF
:102830007C308246D200A4E6FE237E227F21904691
:102840009B0077E5FE227E209200824699E6434671
:102850005B68F9E5040C00205405000010B502483F
:1028600000F024F810BDC046000C002010B502484E
:1028700000F01EF810BDC046000C0020002370B50B
:10288000064C050008002360FFF716FA431C00D031
:1028900070BD2368002BFBD02B60F9E7A00E002051
:1028A000014B18687047C046300700207047C0468B
:1028B0007047C046802310B55B01082801D118007D
:1028C00010BDFFF7EDFF16230360173BF7E7C04687
:1028D00010B583070AD00300032102E001330B4245
:1028E00005D01A78002AF9D1181A10BD030019680A
:1028F0000C4A0D4C8A188A4322420FD15968094A62
:1029000004338A188A43224208D15968054A04339D
:102910008A188A432242F1D000E001331A78002A53
:10292000FBD1E1E7FFFEFEFE80808080F0B5C64669
:10293000060000B508200D00FFF7BCFF04003000C2
:10294000FFF78CFF234B210098469B685F680323A9
:102950009F4338001138401B0019FFF773F8451EDC
:102960006543AC4208DC00213000FFF787FF434697
:102970009B68DB19984206D03000FFF777FF0020F4
:1029800080BCB846F0BD30006942FFF777FF0130E8
:102990000ED0012243467F1B9B6817430E4A5F609F
:1029A000136830005B1B1360FFF760FF0120E7E74F
:1029B00000213000FFF762FF43469A68831A0F2B0D
:1029C000DADD064C04492468001B086001210B4332
:1029D0005360D1E728030020040C002020030020CE
:1029E000F8B5CE46474605000C0080B5002957D003
:1029F000FFF734FF012321009C46083948686246EE
:102A0000030003249343CF187A68654EA243B46849
:102A1000BC4200D170E0BC18A14664467A60044212
:102A200021D10868091A1B18886880464846406802
:102A30002040340008348146A04551D04046CC683F
:102A4000C460A0604846002811D19B185548BA6858
:102A5000824200D17FE0F868D060826001221A4390
:102A60004A60CB5007E0484640682042EDD06246BD
:102A70001A434A603B6080229200934214D2DA08E3
:102A8000580901238340706803437360D3009B1986
:102A90009A68CB608A609960D1602800FFF7E6FEF3
:102AA000C0BCB946B046F8BD5C0A042C3DD89C09B0
:102AB000200039343830E40034192268083C0327F8
:102AC000944203D140E09268944203D05068B843E6
:102AD0009842F8D8D468CC608A60A160D160DCE705
:102AE000002858D1B868D218FB68C3609860634664
:102AF00013434B608A50D0E79A186346034206D1CD
:102B00000B68C91A8868D218CB68C3609860012323
:102B100013434B60244BB1601B689342BDD8234BD9
:102B200028001968FFF702FFB7E7142C07D9542CC7
:102B30001AD81C0B20006F346E30E400BCE7200074
:102B40005C345B30E400B7E7012380108340706899
:102B500003437360BFE7D1609160CA608A6001225D
:102B60001A434A60CB5098E7AA225200944205D8F3
:102B7000DC0B200078347730E4009DE70C4A944267
:102B800005D89C0C20007D347C30E40094E7FE24C2
:102B90007E20A40090E762461A434A603B607CE7CF
:102BA000280300203003002024030020340C0020E0
:102BB00054050000F8B5C04601B40248844601BC83
:102BC000604700BFF901002001B40248844601BCFF
:102BD000604700BF5D01002001B40248844601BC8B
:102BE000604700BFB902002001B40248844601BC1E
:102BF000604700BFC1000020BD180010E918001098
:102C0000351A00104D1C0010911A0010951B001071
:102C10005D19001005190010251900103919001050
:102C2000990D0010411900101511001085180010A1
:0C2C3000ED0C0010B1020010991F001004
:102C3C004345504544492020205449433337000034
:102C4C0000000000454D4241524341544543480069
:102C5C0050524F462057494C544F4E000A2A2A2AAC
:102C6C002050414E4943202A2A2A0A000A0000001B
:102C7C00486172647761726520616C61726D2025A8
:102C8C006420616C726561647920636C61696D6547
:102C9C006400000048617264206173736572740093
:102CAC004F7574206F66206D656D6F727900000032
:102CBC0052656C6561736500626F6F74325F773259
:102CCC003571303830000000302E3100322E312E6C
:102CDC00300000007069636F00000000446973707D
:102CEC006C61794300000000466562202037203279
:102CFC003032350000000000000000003E41414928
:102D0C0041413E000000427F4000000030494949EB
:102D1C004946000049494949494936003F20207835
:102D2C00202000004F494949493000003F4848489D
:102D3C004848300001010161310D03003649494911
:102D4C00494936000609090909097F00781412114E
:102D5C00121478007F49494949497F007E4141411D
:102D6C00414141007F41414141417E007F494949F8
:102D7C00494949007F090909090101007F41414185
:102D8C00515173007F08080808087F000000007F7D
:102D9C00000000002141413F01010100007F0808B3
:102DAC00142241007F404040404040007F02040814
:102DBC0004027F007F02040810207F003E41414145
:102DCC0041413E007F11111111110E003E4141494C
:102DDC0051617E007F11111131510E004649494954
:102DEC00493000000101017F010101003F404040DA
:102DFC0040403F000F10204020100F007F20100893
:102E0C0010207F000041221414224100010204789A
:102E1C000402010041615945434100000600525033
:102E2C00D3F07542BC2C001006005250E182887F12
:102E3C00C42C0010060052503ABCA911D42C00101E
:102E4C0006005250ABB36053D82C00100600525001
:102E5C00BBFF3CB6E02C001006005250861C03024F
:102E6C00E82C0010060052505422A29DF42C0010A5
:102E7C0005005250DE65F4686C3600100D0A000037
:102E8C00282E0010342E0010402E00104C2E001056
:102E9C00582E0010642E0010702E00107C2E001086
:102EAC00F0B5C646150000B504001E000268EFF32D
:102EBC00108172B61368002BFCD0BFF35F8F042314
:102ECC00E356002B2DDB2268BFF35F8F00201060D0
:102EDC0081F31088D0221206127852B290469A4290
:102EEC0003D1002080BCB846F0BD00270BE023685E
:102EFC00BFF35F8F1F6081F310882800310000F052
:102F0C00CFF80028EDD12268EFF3108172B6136868
:102F1C00002BFCD0BFF35F8F23797F2BE7D943467F
:102F2C0002E0D0231B061B6823712368BFF35F8F5D
:102F3C0000221A6081F310880120D3E70268EFF3B6
:102F4C00108172B61368002BFCD0BFF35F8FFF2388
:102F5C0003710368BFF35F8F00221A6081F310883E
:102F6C0040BF704710B5084C2378002B0AD1802342
:102F7C00064807495B051A68C25004338B42FAD1E4
:102F8C000123237010BDC046E80E0020700D001008
:102F9C000001001010B5014B984710BD710D0020B9
:102FAC00034B1A68C0239B009343024A136070477B
:102FBC000C8001400C900140054B1A6880239B004B
:102FCC005340C02292001340024A13607047C0461F
:102FDC000C8001400C9001401423F0B5D6464F46AE
:102FEC0046469A46814618880433C0B598460E006A
:102FFC001B882649140098475346070018884346F7
:10300C0023491B8898475346050018884346214995
:10301C001B8898478046FFF7A5FFB847A847FFF7DE
:10302C00CBFF221E20D0C02108270220490511E029
:10303C00002C14D0131B0D2B20D9002D0AD02300EB
:10304C00002A05D00B6E013A33701300013623436E
:10305C00002B09D03D008B6A1D401842E8D1002D91
:10306C00EDD123001343F5D1FFF79AFFC047FFF7CB
:10307C0091FFE0BCBA46B146A846F0BD4B461B7862
:10308C00013C0B6601239C46E144E8E749460000FD
:10309C0045580000464300007047C0460000000041
:1030AC0001B40248844601BC604700BF25140010DF
:1030BC0010000000000000000000000000000000F4
:1030CC00000000000000000080080020000000004C
:1030DC00503300004C3300005433000052330000D6
:1030EC004D5300004D4300005334000043340000A6
:1030FC00008004400000000000400440000000007C
:10310C00FFFFFFFF000002000000000000000000B5
:10311C002803002028030020300300203003002067
:10312C003803002038030020400300204003002017
:10313C0048030020480300205003002050030020C7
:10314C005803002058030020600300206003002077
:10315C006803002068030020700300207003002027
:10316C0078030020780300208003002080030020D7
:10317C008803002088030020900300209003002087
:10318C009803002098030020A0030020A003002037
:10319C00A8030020A8030020B0030020B0030020E7
:1031AC00B8030020B8030020C0030020C003002097
:1031BC00C8030020C8030020D0030020D003002047
:1031CC00D8030020D8030020E0030020E0030020F7
:1031DC00E8030020E8030020F0030020F0030020A7
:1031EC00F8030020F8030020000400200004002055
:1031FC000804002008040020100400201004002003
:10320C0018040020180400202004002020040020B2
:10321C002804002028040020300400203004002062
:10322C003804002038040020400400204004002012
:10323C0048040020480400205004002050040020C2
:10324C005804002058040020600400206004002072
:10325C006804002068040020700400207004002022
:10326C0078040020780400208004002080040020D2
:10327C008804002088040020900400209004002082
:10328C009804002098040020A0040020A004002032
:10329C00A8040020A8040020B0040020B0040020E2
:1032AC00B8040020B8040020C0040020C004002092
:1032BC00C8040020C8040020D0040020D004002042
:1032CC00D8040020D8040020E0040020E0040020F2
:1032DC00E8040020E8040020F0040020F0040020A2
:1032EC00F8040020F8040020000500200005002050
:1032FC0008050020080500201005002010050020FE
:10330C0018050020180500202005002020050020AD
:10331C00280500202805002030050020300500205D
:10332C00380500203805002040050020400500200D
:10333C0048050020480500205005002050050020BD
:10334C00580500205805002060050020600500206D
:10335C00680500206805002070050020700500201D
:10336C0078050020780500208005002080050020CD
:10337C00880500208805002090050020900500207D
:10338C009805002098050020A0050020A00500202D
:10339C00A8050020A8050020B0050020B0050020DD
:1033AC00B8050020B8050020C0050020C00500208D
:1033BC00C8050020C8050020D0050020D00500203D
:1033CC00D8050020D8050020E0050020E0050020ED
:1033DC00E8050020E8050020F0050020F00500209D
:1033EC00F8050020F805002000060020000600204B
:1033FC0008060020080600201006002010060020F9
:10340C0018060020180600202006002020060020A8
:10341C002806002028060020300600203006002058
:10342C003806002038060020400600204006002008
:10343C0048060020480600205006002050060020B8
:10344C005806002058060020600600206006002068
:10345C006806002068060020700600207006002018
:10346C0078060020780600208006002080060020C8
:10347C008806002088060020900600209006002078
:10348C009806002098060020A0060020A006002028
:10349C00A8060020A8060020B0060020B0060020D8
:1034AC00B8060020B8060020C0060020C006002088
:1034BC00C8060020C8060020D0060020D006002038
:1034CC00D8060020D8060020E0060020E0060020E8
:1034DC00E8060020E8060020F0060020F006002098
:1034EC00F8060020F8060020000700200007002046
:1034FC0008070020080700201007002010070020F4
:10350C0018070020180700202007002020070020A3
:10351C00380700200000000000000000380C0020DC
:10352C00A00C0020080D002000000000000000008E
:10353C00000000000000000000000000000000007F
:10354C00000000000000000000000000000000006F
:10355C00000000000000000000000000000000005F
:10356C00000000000000000000000000000000004F
:10357C00000000000000000000000000000000003F
:10358C00000000000000000000000000000000002F
:10359C00000000000000000000000000000000001F
:1035AC00000000000000000000000000000000000F
:1035BC0001000000000000000E33CDAB34126DE6AC
:1035CC00ECDE05000B000000000000000000000015
:1035DC0000000000000000000000000000000000DF
:1035EC0000000000000000000000000000000000CF
:1035FC0000000000000000000000000000000000BF
:10360C0000000000000000000000000000000000AE
:10361C00000000000000000000000000000000009E
:10362C00000000000000000000000000000000008E
:10363C00000000000000000000000000000000007E
:10364C00000000000000000000000000000000006E
:10365C00000000000000000000000000000000005E
:04000005100001E9FD
:00000001FF
